:1D007300AE82AF83EE4F60147CF77D001CBCFF011DEC4D70F71EBEFF011F80E82253
:0C005F00750800750900750A0F750B008C
:20009000E4B5080280127401B5080280347402B50803020128020140E50990072693F590CC
:2000B000E590540FF50A740FB50A028009750801750B00020140AF090F74035FF5090201AD
:2000D00040AE9053060F7F00AC0A7D00EEB50443EFB5053F050B74FA250B50547F007E0057
:2000F000BE0400504BEE90072A93FD550A701F750802E50975F008A42406FC740735F0FD25
:20011000EF2F2CF582E43DF583E493F582220E8E0780CD7508008018AE9053060F7F00BE7D
:140130000F0EBF000B750800AF090F74035FF5097582FF22A4
:200706000100020003000B000400050006000D000700080009000C000000FF00FF000E0076
:08072600EFDFBF7F08040201B0
:2001440075823812019B75823812019B75820F12019B75820612019B75820112019B7582E5
:200164008002019BAF82D2A6C2A5D2A78F80E4F50CF50DC3E50C9401E50D64809480500F4C
:20018400AE0CAF0D74012EF50CE43FF50D80E4C2A790000A020073AF82C2A6C2A5D2A78F38
:2001A40080E4F50EF50FC3E50E9401E50F64809480500FAE0EAF0F74012EF50EE43FF50FF3
:2001C40080E4C2A790000A020073AD82AE83AFF08D828E838FF0120678FC60188C820DBDC5
:2001E40000010EC007C006C005120168D005D006D00780DC22AF82BF1000500A8F0674803C
:200204002EF58202019B74B02FF58202019BAF82C0071201F9758220120168D0078F8202AF
:0202240001F9DE
:03000000020006F5
:02006B00C200D1
:0300700002000388
:030003000202D71F
:20022600E582FF7020AC10AD11AE128C828D838EF074301205E70CBC00010D8C828D838EC8
:20024600F0E40205E77E00EF60428E050EED2413F98F047D00751E0A8D1F8C828D83C006CC
:20026600C005C004C001120694AA82D001D004D00574302AF7751E0A751F008C828D8312B6
:2002860006CAAC82AD83D0068C0780BB8E07751700C3E5179F5026E5172510FBE43511FC3F
:2002A600AD128F021AAE17EAC39E2413F987068B828C838DF0EE1205E7051780D4EF2510E8
:2002C600FFE43511FEAD128F828E838DF0E40205E71201441204B375820112019B75828084
:2002E60012019B90072E75F0801201CE7582C012019B120090AF828F18751900AE18AF19C4
:20030600BEFF05BF000280EABE0C08BF000512051080DFBE0B05BF00028003020406200090
:20032600030203B61204C9401D75820112019B75828012019B90073775F0801201CE9003CB
:2003460020120073804A75820112019B75828012019B90074475F0801201CE7582C01201F2
:200366009B120526920175820112019B75828012019B3001067C4B7D0780047C587D077B68
:20038600808C828D838BF01201CE900320120073C20075820112019B75828012019B900701
:2003A6002E75F0801201CE7582C012019B0202F81204C9920275820112019B75828012013F
:2003C6009B3002067C657D0780047C727D077B808C828D838BF01201CE9005DC120073126C
:2003E60005E075820112019B75828012019B90072E75F0801201CE7582C012019B0202F85B
:20040600BE0D24BF00211205E075820112019B75828012019B90072E75F0801201CE7582C3
:20042600C012019B0202F8BE0E26BF0023D20075820112019B75828012019B1205E090074D
:200446007F75F0801201CE7582C012019B0202F8BE0A09BF00067E007F008004AE18AF194B
:2004660074F1254050030202F88E82C0061204F9D00675101A7511007512408E821202266C
:200486007D1A7E007F408D828E838FF0120678FC70030202F88C82C007C006C0051201680D
:0D04A600D005D006D0070DBD00DC0E80D9BA
:20072E003E20456E7465723A00426164204F6C642120203A28003E204E65773A0055706421
:20074E006174656421205E5F5E00557064617465212020203A280057656C636F6D6520203F
:18076E005E5F5E0057726F6E6721202020203A28003E204F6C643A0091
:03006D00754100DA
:2004B30075210175220075230375240175300475400075410022E530FFB540028002C3221E
:2004D3007E00C3EE9F5017EE2431F9EE2421F887058604EDB504028002C3220E80E4754021
:2004F30000754100D322AF82AE40BE0F00400122EE04F540EE2431F8A607054122E540FF54
:20051300700122EF14F5401541AF4174102FF5820202121205E0754000754100120090AEC5
:20053300827F008E048F05BCFF05BD000280EDBC0B06BD00030205BEBC0C08BD000512059A
:200553001080D9E4BC0A04BD000104FB6014758200C007C006C0031204F9D003D006D0076A
:200573008019C374099CE49D40118E82C007C006C0031204F9D003D006D007AD41740F2D94
:20059300F582C007C006C0031201F9D003D006D007EB60067C307D00800974302EFEFC33F3
:2005B30095E0FD8C8212016802052F7F00C3EF9540500FEF2421F9EF2431F88606A7060FE1
:1405D30080EB854030754000754100D32275400075410022C7
:06003500E478FFF6D8FD9F
:200013007900E94400601B7A00900786780175A000E493F2A308B8000205A0D9F4DAF27506
:02003300A0FF2C
:1B05E70020F71130F6138883A88220F509F6A8837583002280FEF280F5F02213
:20060200E51E451F60467A01E51E25E0F51EE51F334012F51FE582951EE583951F40030A15
:2006220080E6C3E51F13F51FE51E13F51EC3E582951EF5F0E583951F4005F58385F082C3E6
:0D064200E51F13F51FE51E13F51EDAE1227A
:20003B007800E84400600A790175A000E4F309D8FC7800E84400600C7900900001E4F0A3C3
:04005B00D8FCD9FAFA
:20064F007A10E4FBFCE58225E0F582E58333F583EB33FBEC33FCEB951EF5F0EC951F400693
:09066F00FCABF0438201DADD224C
:0D000600758141120702E5826003020003CC
:1C06780020F71430F6148883A88220F507E6A88375830022E280F7E49322E02291
:20069400C2D5E58330E70DD2D5E4C39582F582E49583F583E51F30E70BE4C3951EF51EE45C
:1606B400951FF51F12060230D50BE4C39582F582E49583F5832273
:2006CA00C2D5E58330E70DD2D5E4C39582F582E49583F583E51F30E70DB2D5E4C3951EF59F
:1806EA001EE4951FF51F12064F30D50BE4C39582F582E49583F58322EC
:0407020075820022DA
:00000001FF
